{
  "_format": "hh-sol-artifact-1",
  "contractName": "FusionStaking",
  "sourceName": "contracts/FusionStaking.sol",
  "abi": [
    {
      "inputs": [
        {
          "internalType": "address",
          "name": "_tokenAddress",
          "type": "address"
        },
        {
          "internalType": "uint256",
          "name": "_maxTotalStake",
          "type": "uint256"
        },
        {
          "internalType": "uint256",
          "name": "_maxUserStake",
          "type": "uint256"
        },
        {
          "internalType": "uint256",
          "name": "_maxStakingDuration",
          "type": "uint256"
        },
        {
          "internalType": "uint16",
          "name": "_rewardRateInPercentage",
          "type": "uint16"
        }
      ],
      "stateMutability": "nonpayable",
      "type": "constructor"
    },
    {
      "inputs": [],
      "name": "AmountExceedsTotalStakeLimit",
      "type": "error"
    },
    {
      "inputs": [],
      "name": "AmountExceedsUserStakeLimit",
      "type": "error"
    },
    {
      "inputs": [],
      "name": "AmountMustBeGreaterThanZero",
      "type": "error"
    },
    {
      "inputs": [],
      "name": "NoAllowance",
      "type": "error"
    },
    {
      "inputs": [],
      "name": "NoYieldLeft",
      "type": "error"
    },
    {
      "inputs": [],
      "name": "NotTokenOwner",
      "type": "error"
    },
    {
      "inputs": [],
      "name": "StakeDoesNotExist",
      "type": "error"
    },
    {
      "inputs": [],
      "name": "StakeFailed",
      "type": "error"
    },
    {
      "inputs": [],
      "name": "TokenDoesNotExist",
      "type": "error"
    },
    {
      "inputs": [],
      "name": "UserAlreadyStaked",
      "type": "error"
    },
    {
      "inputs": [],
      "name": "UserAlreadyWithdrawn",
      "type": "error"
    },
    {
      "anonymous": false,
      "inputs": [
        {
          "indexed": true,
          "internalType": "address",
          "name": "owner",
          "type": "address"
        },
        {
          "indexed": true,
          "internalType": "address",
          "name": "approved",
          "type": "address"
        },
        {
          "indexed": true,
          "internalType": "uint256",
          "name": "tokenId",
          "type": "uint256"
        }
      ],
      "name": "Approval",
      "type": "event"
    },
    {
      "anonymous": false,
      "inputs": [
        {
          "indexed": true,
          "internalType": "address",
          "name": "owner",
          "type": "address"
        },
        {
          "indexed": true,
          "internalType": "address",
          "name": "operator",
          "type": "address"
        },
        {
          "indexed": false,
          "internalType": "bool",
          "name": "approved",
          "type": "bool"
        }
      ],
      "name": "ApprovalForAll",
      "type": "event"
    },
    {
      "anonymous": false,
      "inputs": [
        {
          "indexed": true,
          "internalType": "address",
          "name": "previousOwner",
          "type": "address"
        },
        {
          "indexed": true,
          "internalType": "address",
          "name": "newOwner",
          "type": "address"
        }
      ],
      "name": "OwnershipTransferred",
      "type": "event"
    },
    {
      "anonymous": false,
      "inputs": [
        {
          "indexed": true,
          "internalType": "address",
          "name": "user",
          "type": "address"
        },
        {
          "indexed": false,
          "internalType": "uint256",
          "name": "tokenId",
          "type": "uint256"
        },
        {
          "indexed": false,
          "internalType": "uint256",
          "name": "reward",
          "type": "uint256"
        }
      ],
      "name": "RewardClaimed",
      "type": "event"
    },
    {
      "anonymous": false,
      "inputs": [
        {
          "indexed": true,
          "internalType": "address",
          "name": "user",
          "type": "address"
        },
        {
          "indexed": false,
          "internalType": "uint256",
          "name": "amount",
          "type": "uint256"
        },
        {
          "indexed": false,
          "internalType": "uint256",
          "name": "tokenId",
          "type": "uint256"
        }
      ],
      "name": "Staked",
      "type": "event"
    },
    {
      "anonymous": false,
      "inputs": [
        {
          "indexed": true,
          "internalType": "address",
          "name": "from",
          "type": "address"
        },
        {
          "indexed": true,
          "internalType": "address",
          "name": "to",
          "type": "address"
        },
        {
          "indexed": true,
          "internalType": "uint256",
          "name": "tokenId",
          "type": "uint256"
        }
      ],
      "name": "Transfer",
      "type": "event"
    },
    {
      "anonymous": false,
      "inputs": [
        {
          "indexed": true,
          "internalType": "address",
          "name": "user",
          "type": "address"
        },
        {
          "indexed": false,
          "internalType": "uint256",
          "name": "amount",
          "type": "uint256"
        },
        {
          "indexed": false,
          "internalType": "uint256",
          "name": "tokenId",
          "type": "uint256"
        }
      ],
      "name": "Unstaked",
      "type": "event"
    },
    {
      "anonymous": false,
      "inputs": [
        {
          "indexed": false,
          "internalType": "uint256",
          "name": "amount",
          "type": "uint256"
        }
      ],
      "name": "YieldDeposited",
      "type": "event"
    },
    {
      "inputs": [
        {
          "internalType": "address",
          "name": "to",
          "type": "address"
        },
        {
          "internalType": "uint256",
          "name": "tokenId",
          "type": "uint256"
        }
      ],
      "name": "approve",
      "outputs": [],
      "stateMutability": "nonpayable",
      "type": "function"
    },
    {
      "inputs": [
        {
          "internalType": "address",
          "name": "owner",
          "type": "address"
        }
      ],
      "name": "balanceOf",
      "outputs": [
        {
          "internalType": "uint256",
          "name": "",
          "type": "uint256"
        }
      ],
      "stateMutability": "view",
      "type": "function"
    },
    {
      "inputs": [
        {
          "internalType": "uint256",
          "name": "_amount",
          "type": "uint256"
        },
        {
          "internalType": "uint256",
          "name": "_deadline",
          "type": "uint256"
        },
        {
          "internalType": "uint8",
          "name": "_v",
          "type": "uint8"
        },
        {
          "internalType": "bytes32",
          "name": "_r",
          "type": "bytes32"
        },
        {
          "internalType": "bytes32",
          "name": "_s",
          "type": "bytes32"
        }
      ],
      "name": "depositYield",
      "outputs": [],
      "stateMutability": "nonpayable",
      "type": "function"
    },
    {
      "inputs": [
        {
          "internalType": "uint256",
          "name": "tokenId",
          "type": "uint256"
        }
      ],
      "name": "getApproved",
      "outputs": [
        {
          "internalType": "address",
          "name": "",
          "type": "address"
        }
      ],
      "stateMutability": "view",
      "type": "function"
    },
    {
      "inputs": [
        {
          "internalType": "address",
          "name": "",
          "type": "address"
        }
      ],
      "name": "hasWithdrawn",
      "outputs": [
        {
          "internalType": "bool",
          "name": "",
          "type": "bool"
        }
      ],
      "stateMutability": "view",
      "type": "function"
    },
    {
      "inputs": [
        {
          "internalType": "address",
          "name": "owner",
          "type": "address"
        },
        {
          "internalType": "address",
          "name": "operator",
          "type": "address"
        }
      ],
      "name": "isApprovedForAll",
      "outputs": [
        {
          "internalType": "bool",
          "name": "",
          "type": "bool"
        }
      ],
      "stateMutability": "view",
      "type": "function"
    },
    {
      "inputs": [],
      "name": "maxStakingDuration",
      "outputs": [
        {
          "internalType": "uint256",
          "name": "",
          "type": "uint256"
        }
      ],
      "stateMutability": "view",
      "type": "function"
    },
    {
      "inputs": [],
      "name": "maxTotalStake",
      "outputs": [
        {
          "internalType": "uint256",
          "name": "",
          "type": "uint256"
        }
      ],
      "stateMutability": "view",
      "type": "function"
    },
    {
      "inputs": [],
      "name": "maxUserStake",
      "outputs": [
        {
          "internalType": "uint256",
          "name": "",
          "type": "uint256"
        }
      ],
      "stateMutability": "view",
      "type": "function"
    },
    {
      "inputs": [],
      "name": "name",
      "outputs": [
        {
          "internalType": "string",
          "name": "",
          "type": "string"
        }
      ],
      "stateMutability": "view",
      "type": "function"
    },
    {
      "inputs": [],
      "name": "owner",
      "outputs": [
        {
          "internalType": "address",
          "name": "",
          "type": "address"
        }
      ],
      "stateMutability": "view",
      "type": "function"
    },
    {
      "inputs": [
        {
          "internalType": "uint256",
          "name": "tokenId",
          "type": "uint256"
        }
      ],
      "name": "ownerOf",
      "outputs": [
        {
          "internalType": "address",
          "name": "",
          "type": "address"
        }
      ],
      "stateMutability": "view",
      "type": "function"
    },
    {
      "inputs": [],
      "name": "renounceOwnership",
      "outputs": [],
      "stateMutability": "nonpayable",
      "type": "function"
    },
    {
      "inputs": [],
      "name": "rewardRateInPercentage",
      "outputs": [
        {
          "internalType": "uint16",
          "name": "",
          "type": "uint16"
        }
      ],
      "stateMutability": "view",
      "type": "function"
    },
    {
      "inputs": [
        {
          "internalType": "address",
          "name": "from",
          "type": "address"
        },
        {
          "internalType": "address",
          "name": "to",
          "type": "address"
        },
        {
          "internalType": "uint256",
          "name": "tokenId",
          "type": "uint256"
        }
      ],
      "name": "safeTransferFrom",
      "outputs": [],
      "stateMutability": "nonpayable",
      "type": "function"
    },
    {
      "inputs": [
        {
          "internalType": "address",
          "name": "from",
          "type": "address"
        },
        {
          "internalType": "address",
          "name": "to",
          "type": "address"
        },
        {
          "internalType": "uint256",
          "name": "tokenId",
          "type": "uint256"
        },
        {
          "internalType": "bytes",
          "name": "data",
          "type": "bytes"
        }
      ],
      "name": "safeTransferFrom",
      "outputs": [],
      "stateMutability": "nonpayable",
      "type": "function"
    },
    {
      "inputs": [
        {
          "internalType": "address",
          "name": "operator",
          "type": "address"
        },
        {
          "internalType": "bool",
          "name": "approved",
          "type": "bool"
        }
      ],
      "name": "setApprovalForAll",
      "outputs": [],
      "stateMutability": "nonpayable",
      "type": "function"
    },
    {
      "inputs": [
        {
          "internalType": "uint256",
          "name": "_amount",
          "type": "uint256"
        },
        {
          "internalType": "uint256",
          "name": "_deadline",
          "type": "uint256"
        },
        {
          "internalType": "uint8",
          "name": "_v",
          "type": "uint8"
        },
        {
          "internalType": "bytes32",
          "name": "_r",
          "type": "bytes32"
        },
        {
          "internalType": "bytes32",
          "name": "_s",
          "type": "bytes32"
        }
      ],
      "name": "stakeTokens",
      "outputs": [],
      "stateMutability": "nonpayable",
      "type": "function"
    },
    {
      "inputs": [
        {
          "internalType": "uint256",
          "name": "",
          "type": "uint256"
        }
      ],
      "name": "stakedBalances",
      "outputs": [
        {
          "internalType": "uint256",
          "name": "amount",
          "type": "uint256"
        },
        {
          "internalType": "uint256",
          "name": "startTimestamp",
          "type": "uint256"
        }
      ],
      "stateMutability": "view",
      "type": "function"
    },
    {
      "inputs": [
        {
          "internalType": "bytes4",
          "name": "interfaceId",
          "type": "bytes4"
        }
      ],
      "name": "supportsInterface",
      "outputs": [
        {
          "internalType": "bool",
          "name": "",
          "type": "bool"
        }
      ],
      "stateMutability": "view",
      "type": "function"
    },
    {
      "inputs": [],
      "name": "symbol",
      "outputs": [
        {
          "internalType": "string",
          "name": "",
          "type": "string"
        }
      ],
      "stateMutability": "view",
      "type": "function"
    },
    {
      "inputs": [],
      "name": "token",
      "outputs": [
        {
          "internalType": "address",
          "name": "",
          "type": "address"
        }
      ],
      "stateMutability": "view",
      "type": "function"
    },
    {
      "inputs": [
        {
          "internalType": "uint256",
          "name": "index",
          "type": "uint256"
        }
      ],
      "name": "tokenByIndex",
      "outputs": [
        {
          "internalType": "uint256",
          "name": "",
          "type": "uint256"
        }
      ],
      "stateMutability": "view",
      "type": "function"
    },
    {
      "inputs": [],
      "name": "tokenIdCounter",
      "outputs": [
        {
          "internalType": "uint256",
          "name": "",
          "type": "uint256"
        }
      ],
      "stateMutability": "view",
      "type": "function"
    },
    {
      "inputs": [
        {
          "internalType": "address",
          "name": "owner",
          "type": "address"
        },
        {
          "internalType": "uint256",
          "name": "index",
          "type": "uint256"
        }
      ],
      "name": "tokenOfOwnerByIndex",
      "outputs": [
        {
          "internalType": "uint256",
          "name": "",
          "type": "uint256"
        }
      ],
      "stateMutability": "view",
      "type": "function"
    },
    {
      "inputs": [
        {
          "internalType": "uint256",
          "name": "tokenId",
          "type": "uint256"
        }
      ],
      "name": "tokenURI",
      "outputs": [
        {
          "internalType": "string",
          "name": "",
          "type": "string"
        }
      ],
      "stateMutability": "view",
      "type": "function"
    },
    {
      "inputs": [],
      "name": "totalStaked",
      "outputs": [
        {
          "internalType": "uint256",
          "name": "",
          "type": "uint256"
        }
      ],
      "stateMutability": "view",
      "type": "function"
    },
    {
      "inputs": [],
      "name": "totalStakers",
      "outputs": [
        {
          "internalType": "uint256",
          "name": "",
          "type": "uint256"
        }
      ],
      "stateMutability": "view",
      "type": "function"
    },
    {
      "inputs": [],
      "name": "totalSupply",
      "outputs": [
        {
          "internalType": "uint256",
          "name": "",
          "type": "uint256"
        }
      ],
      "stateMutability": "view",
      "type": "function"
    },
    {
      "inputs": [],
      "name": "totalYield",
      "outputs": [
        {
          "internalType": "uint256",
          "name": "",
          "type": "uint256"
        }
      ],
      "stateMutability": "view",
      "type": "function"
    },
    {
      "inputs": [
        {
          "internalType": "address",
          "name": "from",
          "type": "address"
        },
        {
          "internalType": "address",
          "name": "to",
          "type": "address"
        },
        {
          "internalType": "uint256",
          "name": "tokenId",
          "type": "uint256"
        }
      ],
      "name": "transferFrom",
      "outputs": [],
      "stateMutability": "nonpayable",
      "type": "function"
    },
    {
      "inputs": [
        {
          "internalType": "address",
          "name": "newOwner",
          "type": "address"
        }
      ],
      "name": "transferOwnership",
      "outputs": [],
      "stateMutability": "nonpayable",
      "type": "function"
    },
    {
      "inputs": [
        {
          "internalType": "uint256",
          "name": "_tokenId",
          "type": "uint256"
        }
      ],
      "name": "unstake",
      "outputs": [],
      "stateMutability": "nonpayable",
      "type": "function"
    }
  ],
  "bytecode": "0x60806040523480156200001157600080fd5b50604051620026fd380380620026fd833981016040819052620000349162000155565b6040518060400160405280600b81526020016a14dd185ada5b99c813919560aa1b8152506040518060400160405280600481526020016314d3919560e21b815250816000908162000086919062000268565b50600162000095828262000268565b505050620000b2620000ac620000ff60201b60201c565b62000103565b6001600b55600c80546001600160a01b0319166001600160a01b039690961695909517909455600d92909255600e556015556014805461ffff191661ffff90921691909117905562000334565b3390565b600a80546001600160a01b038381166001600160a01b0319831681179093556040519116919082907f8be0079c531659141344cd1fd0a4f28419497f9722a3daafe3b4186f6b6457e090600090a35050565b600080600080600060a086880312156200016e57600080fd5b85516001600160a01b03811681146200018657600080fd5b80955050602086015193506040860151925060608601519150608086015161ffff81168114620001b557600080fd5b809150509295509295909350565b634e487b7160e01b600052604160045260246000fd5b600181811c90821680620001ee57607f821691505b6020821081036200020f57634e487b7160e01b600052602260045260246000fd5b50919050565b601f8211156200026357600081815260208120601f850160051c810160208610156200023e5750805b601f850160051c820191505b818110156200025f578281556001016200024a565b5050505b505050565b81516001600160401b03811115620002845762000284620001c3565b6200029c81620002958454620001d9565b8462000215565b602080601f831160018114620002d45760008415620002bb5750858301515b600019600386901b1c1916600185901b1785556200025f565b600085815260208120601f198616915b828110156200030557888601518255948401946001909101908401620002e4565b5085821015620003245787850151600019600388901b60f8161c191681555b5050505050600190811b01905550565b6123b980620003446000396000f3fe608060405234801561001057600080fd5b50600436106101fb5760003560e01c80635e2c19db1161011a57806395d89b41116100ad578063c87b56dd1161007c578063c87b56dd1461043b578063e3b4f6cf1461044e578063e985e9c514610457578063f2fde38b14610493578063fc0c546a146104a657600080fd5b806395d89b411461040457806398bdf6f51461040c578063a22cb46514610415578063b88d4fde1461042857600080fd5b8063715018a6116100e9578063715018a6146103d9578063817b1cd2146103e157806386989038146103ea5780638da5cb5b146103f357600080fd5b80635e2c19db146103875780636352211e146103aa57806364904071146103bd57806370a08231146103c657600080fd5b806323b872dd1161019257806333e614b41161016157806333e614b41461034557806342842e0e146103585780634f6ccce71461036b5780635340edd41461037e57600080fd5b806323b872dd146102eb5780632c185339146102fe5780632e17de781461031f5780632f745c591461033257600080fd5b8063095ea7b3116101ce578063095ea7b31461027f5780630a01a533146102945780630ca7d97c146102a757806318160ddd146102e357600080fd5b8063014182051461020057806301ffc9a71461021c57806306fdde031461023f578063081812fc14610254575b600080fd5b610209600f5481565b6040519081526020015b60405180910390f35b61022f61022a366004611ddf565b6104b9565b6040519015158152602001610213565b6102476104e4565b6040516102139190611e4c565b610267610262366004611e5f565b610576565b6040516001600160a01b039091168152602001610213565b61029261028d366004611e94565b61059d565b005b6102926102a2366004611ebe565b6106b7565b6102ce6102b5366004611e5f565b6012602052600090815260409020805460019091015482565b60408051928352602083019190915201610213565b600854610209565b6102926102f9366004611f0d565b61094d565b60145461030c9061ffff1681565b60405161ffff9091168152602001610213565b61029261032d366004611e5f565b61097e565b610209610340366004611e94565b610bbe565b610292610353366004611ebe565b610c54565b610292610366366004611f0d565b610dd9565b610209610379366004611e5f565b610df4565b610209600e5481565b61022f610395366004611f49565b60136020526000908152604090205460ff1681565b6102676103b8366004611e5f565b610e87565b610209600d5481565b6102096103d4366004611f49565b610ee7565b610292610f6d565b61020960105481565b61020960115481565b600a546001600160a01b0316610267565b610247610f81565b610209600b5481565b610292610423366004611f72565b610f90565b610292610436366004611fbf565b610f9f565b610247610449366004611e5f565b610fd7565b61020960155481565b61022f61046536600461209b565b6001600160a01b03918216600090815260056020908152604080832093909416825291909152205460ff1690565b6102926104a1366004611f49565b61104b565b600c54610267906001600160a01b031681565b60006001600160e01b0319821663780e9d6360e01b14806104de57506104de826110c4565b92915050565b6060600080546104f3906120ce565b80601f016020809104026020016040519081016040528092919081815260200182805461051f906120ce565b801561056c5780601f106105415761010080835404028352916020019161056c565b820191906000526020600020905b81548152906001019060200180831161054f57829003601f168201915b5050505050905090565b600061058182611114565b506000908152600460205260409020546001600160a01b031690565b60006105a882610e87565b9050806001600160a01b0316836001600160a01b03160361061a5760405162461bcd60e51b815260206004820152602160248201527f4552433732313a20617070726f76616c20746f2063757272656e74206f776e656044820152603960f91b60648201526084015b60405180910390fd5b336001600160a01b038216148061063657506106368133610465565b6106a85760405162461bcd60e51b815260206004820152603d60248201527f4552433732313a20617070726f76652063616c6c6572206973206e6f7420746f60448201527f6b656e206f776e6572206f7220617070726f76656420666f7220616c6c0000006064820152608401610611565b6106b28383611173565b505050565b3360009081526013602052604090205460ff16156106e857604051638783db4b60e01b815260040160405180910390fd5b60006106f333610ee7565b11156107125760405163db47fb1d60e01b815260040160405180910390fd5b8460000361073357604051635e85ae7360e01b815260040160405180910390fd5b600e5485111561075657604051637dd6d45f60e11b815260040160405180910390fd5b600d5485601054610767919061211e565b11156107865760405163122ec44160e21b815260040160405180910390fd5b600c5460405163d505accf60e01b81526001600160a01b039091169063d505accf906107c290339030908a908a908a908a908a90600401612131565b600060405180830381600087803b1580156107dc57600080fd5b505af11580156107f0573d6000803e3d6000fd5b5050600c546040516323b872dd60e01b8152336004820152306024820152604481018990526001600160a01b0390911692506323b872dd91506064016020604051808303816000875af115801561084b573d6000803e3d6000fd5b505050506040513d601f19601f8201168201806040525081019061086f9190612172565b61088c57604051630e5ee9cb60e01b815260040160405180910390fd5b846010600082825461089e919061211e565b925050819055506108b133600b546111e1565b604080518082018252868152426020808301918252600b80546000908152601283528590209351845591516001909301929092555482518881529182015233917f1449c6dd7851abc30abf37f57715f492010519147cc2652fbc38202c18a6ee90910160405180910390a26011805490600061092c8361218f565b9091555050600b80549060006109418361218f565b91905055505050505050565b610957338261137a565b6109735760405162461bcd60e51b8152600401610611906121a8565b6106b28383836113f9565b6000818152600260205260409020546001600160a01b03166109b35760405163677510db60e11b815260040160405180910390fd5b336109bd82610e87565b6001600160a01b0316146109e4576040516359dc379f60e01b815260040160405180910390fd5b6000818152601260205260408120805490916109ff8461156a565b9050818115610a5c57600080610a2084600f546115ff90919063ffffffff16565b915091508115610a3457600f819055610a4d565b60405163c563a41f60e01b815260040160405180910390fd5b610a57848461211e565b925050505b610a6585611625565b601054610a7290846116c8565b601055600c5460405163a9059cbb60e01b8152336004820152602481018390526001600160a01b039091169063a9059cbb906044016020604051808303816000875af1158015610ac6573d6000803e3d6000fd5b505050506040513d601f19601f82011682018060405250810190610aea9190612172565b610b275760405162461bcd60e51b815260206004820152600e60248201526d155b9cdd185ad94819985a5b195960921b6044820152606401610611565b604080518481526020810187905233917f7fc4727e062e336010f2c282598ef5f14facb3de68cf8195c2f23e1454b2b74e910160405180910390a2604080518681526020810184905233917ff01da32686223933d8a18a391060918c7f11a3648639edd87ae013e2e2731743910160405180910390a25050336000908152601360205260409020805460ff19166001179055505050565b6000610bc983610ee7565b8210610c2b5760405162461bcd60e51b815260206004820152602b60248201527f455243373231456e756d657261626c653a206f776e657220696e646578206f7560448201526a74206f6620626f756e647360a81b6064820152608401610611565b506001600160a01b03919091166000908152600660209081526040808320938352929052205490565b610c5c6116d4565b84600003610c7d57604051635e85ae7360e01b815260040160405180910390fd5b600c5460405163d505accf60e01b81526001600160a01b039091169063d505accf90610cb990339030908a908a908a908a908a90600401612131565b600060405180830381600087803b158015610cd357600080fd5b505af1158015610ce7573d6000803e3d6000fd5b5050600c546001600160a01b031691506323b872dd9050610d10600a546001600160a01b031690565b6040516001600160e01b031960e084901b1681526001600160a01b039091166004820152306024820152604481018890526064016020604051808303816000875af1158015610d63573d6000803e3d6000fd5b505050506040513d601f19601f82011682018060405250810190610d879190612172565b5084600f6000828254610d9a919061211e565b90915550506040518581527f6efedac2f5ab810f0507b22f5e395fa2d33dec417590d47b2b677e13ecdb06199060200160405180910390a15050505050565b6106b283838360405180602001604052806000815250610f9f565b6000610dff60085490565b8210610e625760405162461bcd60e51b815260206004820152602c60248201527f455243373231456e756d657261626c653a20676c6f62616c20696e646578206f60448201526b7574206f6620626f756e647360a01b6064820152608401610611565b60088281548110610e7557610e756121f5565b90600052602060002001549050919050565b6000818152600260205260408120546001600160a01b0316806104de5760405162461bcd60e51b8152602060048201526018602482015277115490cdcc8c4e881a5b9d985b1a59081d1bdad95b88125160421b6044820152606401610611565b60006001600160a01b038216610f515760405162461bcd60e51b815260206004820152602960248201527f4552433732313a2061646472657373207a65726f206973206e6f7420612076616044820152683634b21037bbb732b960b91b6064820152608401610611565b506001600160a01b031660009081526003602052604090205490565b610f756116d4565b610f7f600061172e565b565b6060600180546104f3906120ce565b610f9b338383611780565b5050565b610fa9338361137a565b610fc55760405162461bcd60e51b8152600401610611906121a8565b610fd18484848461184e565b50505050565b6060610fe282611114565b6000610ff960408051602081019091526000815290565b905060008151116110195760405180602001604052806000815250611044565b8061102384611881565b60405160200161103492919061220b565b6040516020818303038152906040525b9392505050565b6110536116d4565b6001600160a01b0381166110b85760405162461bcd60e51b815260206004820152602660248201527f4f776e61626c653a206e6577206f776e657220697320746865207a65726f206160448201526564647265737360d01b6064820152608401610611565b6110c18161172e565b50565b60006001600160e01b031982166380ac58cd60e01b14806110f557506001600160e01b03198216635b5e139f60e01b145b806104de57506301ffc9a760e01b6001600160e01b03198316146104de565b6000818152600260205260409020546001600160a01b03166110c15760405162461bcd60e51b8152602060048201526018602482015277115490cdcc8c4e881a5b9d985b1a59081d1bdad95b88125160421b6044820152606401610611565b600081815260046020526040902080546001600160a01b0319166001600160a01b03841690811790915581906111a882610e87565b6001600160a01b03167f8c5be1e5ebec7d5bd14f71427d1e84f3dd0314c0f7b2291e5b200ac8c7c3b92560405160405180910390a45050565b6001600160a01b0382166112375760405162461bcd60e51b815260206004820181905260248201527f4552433732313a206d696e7420746f20746865207a65726f20616464726573736044820152606401610611565b6000818152600260205260409020546001600160a01b03161561129c5760405162461bcd60e51b815260206004820152601c60248201527f4552433732313a20746f6b656e20616c7265616479206d696e746564000000006044820152606401610611565b6112aa600083836001611914565b6000818152600260205260409020546001600160a01b03161561130f5760405162461bcd60e51b815260206004820152601c60248201527f4552433732313a20746f6b656e20616c7265616479206d696e746564000000006044820152606401610611565b6001600160a01b038216600081815260036020908152604080832080546001019055848352600290915280822080546001600160a01b0319168417905551839291907fddf252ad1be2c89b69c2b068fc378daa952ba7f163c4a11628f55a4df523b3ef908290a45050565b60008061138683610e87565b9050806001600160a01b0316846001600160a01b031614806113cd57506001600160a01b0380821660009081526005602090815260408083209388168352929052205460ff165b806113f15750836001600160a01b03166113e684610576565b6001600160a01b0316145b949350505050565b826001600160a01b031661140c82610e87565b6001600160a01b0316146114325760405162461bcd60e51b81526004016106119061223a565b6001600160a01b0382166114945760405162461bcd60e51b8152602060048201526024808201527f4552433732313a207472616e7366657220746f20746865207a65726f206164646044820152637265737360e01b6064820152608401610611565b6114a18383836001611914565b826001600160a01b03166114b482610e87565b6001600160a01b0316146114da5760405162461bcd60e51b81526004016106119061223a565b600081815260046020908152604080832080546001600160a01b03199081169091556001600160a01b0387811680865260038552838620805460001901905590871680865283862080546001019055868652600290945282852080549092168417909155905184937fddf252ad1be2c89b69c2b068fc378daa952ba7f163c4a11628f55a4df523b3ef91a4505050565b600081815260126020526040812060018101548290611589904261227f565b6015549091506001908211156115a35760155491506115a7565b5060025b6115be620151806115b88482611a48565b90611a54565b60155460145485549294506000926115f59260ff8616926115ef928391606491839161ffff16906115b8908c611a54565b90611a48565b9695505050505050565b600080838311156116155750600090508061161e565b50600190508183035b9250929050565b600061163082610e87565b9050611640816000846001611914565b61164982610e87565b600083815260046020908152604080832080546001600160a01b03199081169091556001600160a01b0385168085526003845282852080546000190190558785526002909352818420805490911690555192935084927fddf252ad1be2c89b69c2b068fc378daa952ba7f163c4a11628f55a4df523b3ef908390a45050565b6000611044828461227f565b600a546001600160a01b03163314610f7f5760405162461bcd60e51b815260206004820181905260248201527f4f776e61626c653a2063616c6c6572206973206e6f7420746865206f776e65726044820152606401610611565b600a80546001600160a01b038381166001600160a01b0319831681179093556040519116919082907f8be0079c531659141344cd1fd0a4f28419497f9722a3daafe3b4186f6b6457e090600090a35050565b816001600160a01b0316836001600160a01b0316036117e15760405162461bcd60e51b815260206004820152601960248201527f4552433732313a20617070726f766520746f2063616c6c6572000000000000006044820152606401610611565b6001600160a01b03838116600081815260056020908152604080832094871680845294825291829020805460ff191686151590811790915591519182527f17307eab39ab6107e8899845ad3d59bd9653f200f220920489ca2b5937696c31910160405180910390a3505050565b6118598484846113f9565b61186584848484611a60565b610fd15760405162461bcd60e51b815260040161061190612292565b6060600061188e83611b61565b600101905060008167ffffffffffffffff8111156118ae576118ae611fa9565b6040519080825280601f01601f1916602001820160405280156118d8576020820181803683370190505b5090508181016020015b600019016f181899199a1a9b1b9c1cb0b131b232b360811b600a86061a8153600a85049450846118e257509392505050565b60018111156119835760405162461bcd60e51b815260206004820152603560248201527f455243373231456e756d657261626c653a20636f6e7365637574697665207472604482015274185b9cd9995c9cc81b9bdd081cdd5c1c1bdc9d1959605a1b6064820152608401610611565b816001600160a01b0385166119df576119da81600880546000838152600960205260408120829055600182018355919091527ff3f7a9fe364faab93b216da50a3214154f22a0a2b415b23a84c8169e8b636ee30155565b611a02565b836001600160a01b0316856001600160a01b031614611a0257611a028582611c39565b6001600160a01b038416611a1e57611a1981611cd6565b611a41565b846001600160a01b0316846001600160a01b031614611a4157611a418482611d85565b5050505050565b600061104482846122e4565b60006110448284612306565b60006001600160a01b0384163b15611b5657604051630a85bd0160e11b81526001600160a01b0385169063150b7a0290611aa490339089908890889060040161231d565b6020604051808303816000875af1925050508015611adf575060408051601f3d908101601f19168201909252611adc91810190612350565b60015b611b3c573d808015611b0d576040519150601f19603f3d011682016040523d82523d6000602084013e611b12565b606091505b508051600003611b345760405162461bcd60e51b815260040161061190612292565b805181602001fd5b6001600160e01b031916630a85bd0160e11b1490506113f1565b506001949350505050565b60008072184f03e93ff9f4daa797ed6e38ed64bf6a1f0160401b8310611ba05772184f03e93ff9f4daa797ed6e38ed64bf6a1f0160401b830492506040015b6d04ee2d6d415b85acef81000000008310611bcc576d04ee2d6d415b85acef8100000000830492506020015b662386f26fc100008310611bea57662386f26fc10000830492506010015b6305f5e1008310611c02576305f5e100830492506008015b6127108310611c1657612710830492506004015b60648310611c28576064830492506002015b600a83106104de5760010192915050565b60006001611c4684610ee7565b611c50919061227f565b600083815260076020526040902054909150808214611ca3576001600160a01b03841660009081526006602090815260408083208584528252808320548484528184208190558352600790915290208190555b5060009182526007602090815260408084208490556001600160a01b039094168352600681528383209183525290812055565b600854600090611ce89060019061227f565b60008381526009602052604081205460088054939450909284908110611d1057611d106121f5565b906000526020600020015490508060088381548110611d3157611d316121f5565b6000918252602080832090910192909255828152600990915260408082208490558582528120556008805480611d6957611d6961236d565b6001900381819060005260206000200160009055905550505050565b6000611d9083610ee7565b6001600160a01b039093166000908152600660209081526040808320868452825280832085905593825260079052919091209190915550565b6001600160e01b0319811681146110c157600080fd5b600060208284031215611df157600080fd5b813561104481611dc9565b60005b83811015611e17578181015183820152602001611dff565b50506000910152565b60008151808452611e38816020860160208601611dfc565b601f01601f19169290920160200192915050565b6020815260006110446020830184611e20565b600060208284031215611e7157600080fd5b5035919050565b80356001600160a01b0381168114611e8f57600080fd5b919050565b60008060408385031215611ea757600080fd5b611eb083611e78565b946020939093013593505050565b600080600080600060a08688031215611ed657600080fd5b8535945060208601359350604086013560ff81168114611ef557600080fd5b94979396509394606081013594506080013592915050565b600080600060608486031215611f2257600080fd5b611f2b84611e78565b9250611f3960208501611e78565b9150604084013590509250925092565b600060208284031215611f5b57600080fd5b61104482611e78565b80151581146110c157600080fd5b60008060408385031215611f8557600080fd5b611f8e83611e78565b91506020830135611f9e81611f64565b809150509250929050565b634e487b7160e01b600052604160045260246000fd5b60008060008060808587031215611fd557600080fd5b611fde85611e78565b9350611fec60208601611e78565b925060408501359150606085013567ffffffffffffffff8082111561201057600080fd5b818701915087601f83011261202457600080fd5b81358181111561203657612036611fa9565b604051601f8201601f19908116603f0116810190838211818310171561205e5761205e611fa9565b816040528281528a602084870101111561207757600080fd5b82602086016020830137600060208483010152809550505050505092959194509250565b600080604083850312156120ae57600080fd5b6120b783611e78565b91506120c560208401611e78565b90509250929050565b600181811c908216806120e257607f821691505b60208210810361210257634e487b7160e01b600052602260045260246000fd5b50919050565b634e487b7160e01b600052601160045260246000fd5b808201808211156104de576104de612108565b6001600160a01b0397881681529590961660208601526040850193909352606084019190915260ff16608083015260a082015260c081019190915260e00190565b60006020828403121561218457600080fd5b815161104481611f64565b6000600182016121a1576121a1612108565b5060010190565b6020808252602d908201527f4552433732313a2063616c6c6572206973206e6f7420746f6b656e206f776e6560408201526c1c881bdc88185c1c1c9bdd9959609a1b606082015260800190565b634e487b7160e01b600052603260045260246000fd5b6000835161221d818460208801611dfc565b835190830190612231818360208801611dfc565b01949350505050565b60208082526025908201527f4552433732313a207472616e736665722066726f6d20696e636f72726563742060408201526437bbb732b960d91b606082015260800190565b818103818111156104de576104de612108565b60208082526032908201527f4552433732313a207472616e7366657220746f206e6f6e20455243373231526560408201527131b2b4bb32b91034b6b83632b6b2b73a32b960711b606082015260800190565b60008261230157634e487b7160e01b600052601260045260246000fd5b500490565b80820281158282048414176104de576104de612108565b6001600160a01b03858116825284166020820152604081018390526080606082018190526000906115f590830184611e20565b60006020828403121561236257600080fd5b815161104481611dc9565b634e487b7160e01b600052603160045260246000fdfea2646970667358221220c1c3f4963bf4f0452b116d12924144146c69e2121de640f11b3cce448a7b430d64736f6c63430008130033",
  "linkReferences": {},
  "deployedLinkReferences": {}
}